:100000000C941F020C94E30E0C9466020C9466028E
:100010000C9466020C9466020C9466020C946602C0
:100020000C9466020C9466020C94EB210C94BD2295
:100030000C94EB1C0C9466020C9466020C94660201
:100040000C9466020C9466020C9466020C94660290
:100050000C9466020C94441D0C9466020C94660287
:100060000C9466020C9466020C9466020C94660270
:100070000C9466020C9466020C9466020C94660260
:100080000C9466020C9466020C9466020C94660250
:100090000C9466020C9466020C9466020C94660240
:1000A0000C9466020C9466020C9466026612661248
:1000B00098129812E5120313241424140E13A31398
:1000C000B413B4131414241424141D14C414C41429
:1000D000D614D614CD14D614D614D614C414C414FD
:1000E000D214D614D614D2142A23512349245123CE
:1000F00049249D23C02349241724262429001E00B7
:100100001F0020002100220023002B0014001A00F1
:100110000800150017002F00390004001600070022
:1001200009000A00AA00E1001D001B0006001900DA
:1001300005000000E000E300E2004C002A002C0073
:10014000000000000000015149004D004A0000007D
:1001500024002500260027002D002E003500300049
:100160001C0018000C00120013003100A9000B0045
:100170000D000E000F0033003400000011001000CD
:10018000360037003800E50000002C002800500041
:10019000520051004F0000004B004E00E400E6000A
:1001A0000000000001003A003B003C003D003E0022
:1001B0003F000100010001005200010001000100A8
:1001C00001000100500051004F000100BE0001007D
:1001D000010001000100010001000000AD00AE00BF
:1001E000AC00AB00010001000000000000000100B5
:1001F00001000100010000004000410042004300F6
:10020000440045000100010001000100010001005F
:1002100001000100BD00010001000100010001001A
:1002200001000000010001000100010001000100C7
:1002300000004C000100010001000100010000006D
:1002400001000100010001000000000001000100A8
:100250000100010001000100010001000100010096
:100260000100010001000100010001000100010086
:100270000100010001000100010001000100010076
:100280000100000001000100010001000100010067
:10029000000000000000010001000100010000005A
:1002A0000100010053000100560057000100010049
:1002B00001005F0060006100010001000100010019
:1002C0005C005D005E005500010000000100590067
:1002D0005A005B0054000100000001005800620059
:1002E00063000100010000000100010001000100A5
:1002F000000000002C0344006100630074007900DA
:100300006C002D004D0061006E00750066006F00EE
:1003100072006D00200028003500780037002900A9
:1003200000000E037400730068006F007200740018
:1003300000000403090409023B00020100A0FA09BD
:100340000400000103010100092111010001224004
:10035000000705810308000A0904010001030000E9
:1003600000092111010001227B0007058203200002
:100370000A12011001000000084D44373501000148
:1003800002000105010902A10185020901A1000580
:100390000919012908150025019508750181020533
:1003A00001093009311581257F95027508810609FB
:1003B000381581257F950175088106050C0A3802DC
:1003C0001581257F950175088106C0C0050109804A
:1003D000A101850319012AB700150126B70095016F
:1003E00075108100C0050C0901A101850419012ABD
:1003F000A002150126A002950175108100C005011B
:100400000906A101050719E029E71500250195084E
:10041000750181029501750881010507190029FF01
:10042000150026FF009506750881000508190129A9
:1004300005950575019102950175039101C011247F
:100440001FBECFEFDAE0DEBFCDBF04B603FE27C08C
:100450008091A2029091A302A091A402B091A50262
:100460008730904BA740B04BD1F41092A20210926B
:10047000A3021092A4021092A50214BE84B7877F33
:1004800084BF0FB6F894A89580916000886180932E
:100490006000109260000FBEE0E0F8E3099511E003
:1004A000A0E0B1E0E2E0FAE402C005900D92AC39C0
:1004B000B107D9F722E0ACE9B1E001C01D92A23A40
:1004C000B207E1F70E94251F0C94FF240C94000052
:1004D0000C94790581E0089581E008950C946C02F4
:1004E00008950C9470021F93CF93DF9300D000D037
:1004F0001F92CDB7DEB749835A836B833091E001F9
:1005000089819A81311114C0662359F0222349F060
:100510000E94371A182F682F89819A810E94E0194A
:1005200003C00E940B1A182F69817A81812F04C0A1
:100530000E94371A69817A810F900F900F900F9067
:100540000F90DF91CF911F910C943603FC01262F61
:10055000408151816281738184810C947302CF93B5
:10056000DF93EC0160E00E94A602BE01DF91CF9113
:100570000C9471020E9441050C9468020C9477055A
:1005800008950E94B2140E94C0022FEF84E39CE001
:10059000215080409040E1F700C000000C94AB1D5A
:1005A0000F931F93CF93DF938C0161E00E94A6020B
:1005B000EC01B8010E946E028823F1F1B801CE016E
:1005C0000E94380C8823C1F1B801CE010E948A0C28
:1005D000882391F1B801CE010E94B50D882361F105
:1005E000F8018281882309F1CB358DE5D807C1F068
:1005F00050F4C115FCE5DF0781F0CF3DDC45A9F4DF
:100600000E94421C19C0CC35EDE5DE0761F0CD3506
:10061000DD4559F40E94CA1A08C00E94C1020CC0EC
:100620000E94D31A02C00E94D61AC801DF91CF914E
:100630001F910F910C946A0280E0DF91CF911F917E
:100640000F91089508950C94220381E008950C946D
:100650002503CF93C82F0E9423038C2F0E942703CA
:10066000CF91089580E090E00895089524E5829F59
:10067000C0011124FC0127E0729FE00DF11D11243F
:10068000E60FF11DEE0FFF1FE450FF4F859194918F
:100690000895880F991FFC01EC50FD4F85919491AE
:1006A0000895CF93DF930E9436030E946904EC0102
:1006B0008115904508F041C0C11580E4D80708F0C5
:1006C000D1C0C83ED10510F5C03ED10508F0FDC02F
:1006D000C83AD10578F4C53AD10508F0A2C0C130B6
:1006E000D10509F4F2C008F4EEC0C430D10508F019
:1006F000ECC0E9C0CF3BD10508F49BC0C03CD1059C
:1007000008F4E1C0CE01805C91099EC0C11590E261
:10071000D90758F4C11521E0D20708F0D6C0CD3E64
:10072000D10508F4D0C0D065D0C0C11580E3D8078A
:1007300008F08EC0CE019F7087C0C11595E5D9071E
:1007400008F043C0C11524E5D20708F0A2C0C115C6
:1007500082E5D80708F5C11591E5D90708F085C0ED
:10076000CE0174E0969587957A95E1F783709C2F7A
:10077000937021E030E002C0220F331F9A95E2F718
:100780003C68382BCF70C695C69580E2C89FE001C3
:100790001124C22BD32B99C09E01237033278C2F99
:1007A00086958695C115D34508F064C0C1E0D0E0B8
:1007B00002C0CC0FDD1F2A95E2F720E2829FC00124
:1007C0001124C82BD92BDC6880C0C11529E5D207BC
:1007D000A0F4C11588E5D80708F060C0C11596E5FA
:1007E000D90708F070C08C2F0E94FD048F71C82FAC
:1007F000D0E0DC2FCC27D06268C0C1152AE5D20733
:1008000008F451C0CE0190568115904208F05BC0AB
:100810008D2F8F710E94FD04DD27D0628F71D82B40
:1008200054C0C55AD0E0C65BDE4FC881D0E0D0646A
:100830004CC0C85AD0E0CC0FDD1FC45EDE4F09901B
:10084000D881C02DD46441C00E944903EC013DC051
:10085000CE019927D3FF03C0EC01D86C36C0EC0160
:10086000D06C33C0DF70D06A30C0DC2FCC27C16FB2
:10087000D06A2BC0C1E0D0E002C0CC0FDD1F2A95AA
:10088000E2F720E2829FC0011124C82BD92BDA683D
:100890001CC0DC2FCC27C46FD06A17C0DC2FCC273C
:1008A000C06FD06A12C08C2F8F700E94FD0494E03C
:1008B000D695C7959A95E1F7CF70D0E0DC2FCC277D
:1008C000D069C82B02C0C0E0D0E0CE01DF91CF914B
:1008D00008958238910569F1B0F48133910509F4E6
:1008E0006DC048F48932910509F463C08A329105DC
:1008F00009F469C008958533910509F455C0893319
:100900009105B9F00895833E910569F138F4803E70
:100910009105B1F0823E910509F10895863E910559
:10092000A9F1873E9105B9F1843E910509F064C0B3
:1009300023C02091710220FD4FC021FD4DC00895BC
:100940008091710280FD44C08091720280FF44C09A
:100950008091710284FD42C083EE4DC0809171028E
:1009600082FF38C0F5CF8091710282FD33C0809143
:10097000720280FD31C0ECCF8091720281FF32C0E3
:100980008091710284FD2AC087EE35C0809171028A
:1009900083FF26C0F5CF8091710283FD21C0809135
:1009A000720281FD1FC0ECCF8091710285FD1CC0D9
:1009B0001DC08091710285FD19C016C08091710221
:1009C00086FD16C017C08091710286FD13C010C04D
:1009D00089E311C082EE0FC080EE0DC080E00BC035
:1009E00086EE09C084EE07C089E205C085E303C036
:1009F0008AE201C081E390E008959091710292FF34
:100A00000DC0282F2871283019F4877F846006C014
:100A1000282F2471243011F48B7F886093FF0DC040
:100A2000282F2871283119F4877E846106C0282F69
:100A30002471243111F48B7E88612091720220FF91
:100A40000DC0382F3871383019F4877F816006C0A7
:100A5000382F3171313011F48E7F886021FF0DC045
:100A6000282F2871283119F4877E816106C0282F2C
:100A70002171213111F48E7E886194FD877E089565
:100A800008950E949A1B811102C00E94421C0E947C
:100A9000A51B809365020E94AD1B90937202809308
:100AA00071020E9440050E94A91B682F70E080E03F
:100AB00090E00E94E2186091500270915102809182
:100AC0005202909153020C941A19E82FF0E0E15869
:100AD000FD4F80810895089580EA8A95F1F7089581
:100AE00000C008950C946C0508950C9474050C9442
:100AF00075050C947405F894E82FE295EF70F0E01A
:100B000031A1282F2F7081E090E001C0880F2A9535
:100B1000EAF7982F9095932391A392A1892B82A312
:100B20007894089508950C949205CF93DF930E94D2
:100B300015078091000180910001811102C096E0AB
:100B400001C090E090938C0286E0891B80938B0219
:100B5000C4E5D1E089910E947B0581E0CA35D807C0
:100B6000C9F7CDE4D1E089910E947B0581E0C435CD
:100B7000D807C9F7E3E7F2E0AFE7B2E08FE792E02A
:100B800011921D928E179F07D9F786E00E94C40626
:100B90000E94BA02DF91CF910C941F070F931F930D
:100BA000CF93DF9300D000D000D0CDB7DEB70E9446
:100BB000FB0660918C02882309F442C08E010F5F0E
:100BC0001F4F86E0F80111928A95E9F7862F90E091
:100BD000B80181589D4F0E94F20D811116C080917D
:100BE0009E018F5F80939E01863030F1E0918B02F1
:100BF000F0E0E158FD4FD801CE01079611921D9209
:100C0000A817B907D9F711E018C010929E01A0915A
:100C10008B02B0E0A158BD4FF8019E01295F3F4F04
:100C200010E081919C91981711F08C9311E011962E
:100C3000E217F307B1F701C010E00E94BE020DC039
:100C400070E061587D4F80918B0290E081589D4FFC
:100C50000E941C0E0E94930510E0812F26960FB66D
:100C6000F894DEBF0FBECDBFDF91CF911F910F91E2
:100C700008958F929F92AF92BF92CF92DF92EF92A0
:100C8000FF920F931F93CF93DF9384E5A82E81E00B
:100C9000B82EC3E7D2E09AE5E92E91E0F92E912C27
:100CA00001E010E06501F5018081F894E82FE295FC
:100CB000EF70F0E021A18F70A80102C0440F551F12
:100CC0008A95E2F7CA01922F982B91A392A1809561
:100CD000892382A378940E947005EDE4F1E020E07E
:100CE00030E0812C4191A42FA295AF70B0E0909696
:100CF0008C9190E04F7002C0959587954A95E2F7E8
:100D000080FD07C0802F022E01C0880F0A94EAF7E9
:100D100001C080E0882A2F5F3F4F2730310511F74F
:100D20005FEFA51AB50AF60180810E947B050E943B
:100D300072058881881619F0888281E001C080E000
:100D4000982A2196EA14FB0409F0ACCF60918C023A
:100D500070E061587D4F292D46E083E792E00E94C4
:100D6000C5060E94CE05992011F081E090E0DF9148
:100D7000CF911F910F91FF90EF90DF90CF90BF9098
:100D8000AF909F908F9008950895FF920F931F93B7
:100D9000CF93DF938C01F62ED72FC42F222349F057
:100DA00081E08093A1010E941D1D9093A00180937A
:100DB0009F018091A1018823C1F080919F019091B2
:100DC000A0010E94351D069780F0EF2DFD2FD80160
:100DD0004C2F50E0CD01801B910B841795071CF41C
:100DE0008D918193F7CF1092A101DF91CF911F9147
:100DF0000F91FF9008958091A20181110DC00E9472
:100E00008224811102C082E001C081E08093A201AE
:100E1000823011F40E947D2481E09091A2019130F2
:100E200009F080E008950C94FB060E94130780935C
:100E300000010E94FB0681110C94E60D08950E94AA
:100E4000FB06811102C00C94EC0D0895833081F1F2
:100E500028F4813059F08230D1F00895853009F4BA
:100E600049C0B8F1863009F456C008958091A601B2
:100E7000262F30E0280F311D2F3F310524F4680F55
:100E80006093A60108958FEF8093A6010895809145
:100E90000601262F30E0280F311D2F3F310524F4A5
:100EA000680F6093060108958FEF809306010895FF
:100EB00080910501262F30E0280F311D2F3F31058D
:100EC00024F4680F6093050108958FEF8093050166
:100ED000089580910401262F30E0280F311D2F3F07
:100EE000310524F4680F6093040108958FEF809317
:100EF0000401089580910201262F30E0280F311D52
:100F00002F3F310524F4680F6093020108958FEF9D
:100F100080930201089580910101262F30E0280F6F
:100F2000311D2F3F310524F4680F609301010895AE
:100F30008FEF809301010895833011F128F48130FF
:100F400049F0823091F00895853081F120F18630AA
:100F5000C1F108958091A601681720F4861B809343
:100F6000A60108951092A6010895809106016817C0
:100F700020F4861B809306010895109206010895BF
:100F800080910501681720F4861B80930501089560
:100F900010920501089580910401681720F4861BC2
:100FA0008093040108951092040108958091020134
:100FB000681720F4861B80930201089510920201A5
:100FC000089580910101681720F4861B8093010128
:100FD00008951092010108950F931F9341E050E08E
:100FE00060E070E08A019B0104C0000F111F221F06
:100FF000331F8A95D2F7C901B8010E94E2181F91E8
:101000000F910C94B2148B3109F468C058F58B30F1
:1010100009F486C078F4863009F445C020F48530A0
:1010200009F44BC07FC0873009F44AC0883009F406
:1010300077C078C0803109F464C068F48E3009F05C
:1010400071C08091650282FB222720F991E09227EE
:1010500090FB82F94CC0863109F462C0893109F4F1
:101060005FC060C08A32E1F060F4873209F455C095
:1010700028F48E3108F456C08D5150C08932E9F001
:1010800051C0833450F48A3308F045C0853309F4E5
:1010900044C0883309F444C045C08334F1F142C0F0
:1010A0000E94421C3DC080916502817F8E7F8093AB
:1010B000650281E08093A40108950E94C10230C0BE
:1010C00080916502982F9095917090FB80F98093A4
:1010D0006502911125C0897F877F10C080916502CC
:1010E00081FB222720F991E0922790FB81F98093E0
:1010F00065029923A9F08091650281608093650261
:101100000FC08091650283FB222720F991E092278E
:1011100090FB83F9ECCF895301C080E00E94EC077B
:1011200081E0089580E0089580E008950C9494088B
:101130008E518A3030F4E82FF0E0E05AFE4F808183
:10114000089580E00895CF93C82F8091A401813045
:1011500051F018F0823099F17BC00E94D91A823286
:1011600009F078C004C00E94D91A823261F48C2F31
:101170000E949608811104C08C2F0E9403081DC094
:1011800081E090E01AC08C2F0E949408811114C055
:10119000C43179F048F4CB3079F0C03109F05EC049
:1011A00082E08093A40108C0C93219F0C83321F04D
:1011B00055C01092A40152C081E0817051C0C93263
:1011C00079F108F5C43161F1A0F4C73009F044C0E9
:1011D0001092A60184E180930601C09305018CE37F
:1011E0008093040188E08093020188E280930101EA
:1011F00033C082EE8C0F863078F58C2F0E949808D1
:101200008093A30129C0CE34E9F020F4CB3421F53A
:101210006AE013C0C13579F0C235F1F461E00DC068
:101220008091A301882319F01092A30115C081E0D9
:101230008093A40115C061E006C08091A3010E94C3
:1012400026070AC06AE08091A3010E949C0704C09F
:101250001092A40180E004C081E002C080E0ADCF24
:10126000CF9108958091AD0180FF0BC06091050181
:1012700085E0689FB0011124759567957595679510
:101280002BC081FF09C06091050185E0689FB00116
:1012900011247595679520C082FF07C060910501F4
:1012A00085E0689FB001112417C09091AC0199238B
:1012B000D1F060910401961788F72091050185E02F
:1012C000289F90011124929FA001939F500D1124FB
:1012D00070E0CA010E948F246038710540F46115E6
:1012E000710519F406C065E070E0862F08958FE758
:1012F000089581E008958091AD0180FF08C060915C
:10130000020170E0759567957595679521C081FF1D
:1013100006C06091020170E07595679519C082FF63
:1013200004C06091020170E010C09091AB0199235C
:1013300099F0609101019617A0F780910201899FB1
:10134000C001112470E00E948F246038710540F4C0
:101350006115710519F406C061E070E0862F0895EB
:101360008FE7089581E008958D3E21F40E943209AF
:10137000819504C08E3E29F40E9432098093B10108
:1013800008958F3E21F40E943209819504C0803F68
:1013900029F40E9432098093B0010895893F19F41D
:1013A0000E947B0905C08A3F31F40E947B09819528
:1013B0008093B20108958B3F21F40E947B098195AF
:1013C00004C08C3F29F40E947B098093B3010895E7
:1013D0009FE0980F983078F421E030E0A90102C036
:1013E000440F551F9A95E2F7CA019091AF01892BDE
:1013F0008093AF0108958D3F21F48091AD0181600C
:101400000BC08E3F21F48091AD01826005C08F3FFB
:1014100029F48091AD0184608093AD0108958D3EE3
:1014200039F49091B10197FF35C01092B10159C0C4
:101430008E3E29F49091B1011916BCF32BC0909106
:10144000B0018F3E29F497FF25C01092B00149C02A
:10145000803F19F41916CCF31DC09091B201893F59
:1014600029F41916BCF41092B2013BC08A3F19F45A
:1014700097FF10C0F8CF8B3F39F49091B30197FFDD
:1014800009C01092B3012DC08C3F21F49091B3019B
:101490001916BCF39FE0980F983080F421E030E0FB
:1014A000A90102C0440F551F9A95E2F7CA01809521
:1014B0009091AF0189238093AF0113C08D3F21F438
:1014C0008091AD018E7F0BC08E3F21F48091AD01E4
:1014D0008D7F05C08F3F29F48091AD018B7F809374
:1014E000AD018091B001811106C08091B1018111DF
:1014F00002C01092AC018091B201811106C08091AE
:10150000B301811102C01092AB0108950E941D1D0C
:101510002091B001211104C02091B101222321F0BA
:101520009093AA018093A9012091B201211104C0D6
:101530002091B301222321F09093A8018093A70169
:101540008EEA91E00C949D0FEF92FF920F931F9300
:10155000CF93DF9300D000D000D0CDB7DEB786E0C8
:10156000EEEAF1E0DE01119601900D928A95E1F725
:10157000E090B001F090B1010091B2011091B3017F
:101580001092B0011092B1011092B2011092B30109
:10159000E11003C0FF2009F45DC08091A901909182
:1015A000AA010E94351DAC019091AC01992339F03C
:1015B0002091060130E02417350758F04BC02091E8
:1015C000A6018AE0289F900111242417350718F0FE
:1015D00041C09F3F19F09F5F9093AC01EE2061F0F6
:1015E0000E9432091E1414F09FEF01C091E0989FF1
:1015F000902D11249093B001FF2061F00E943209D8
:101600001F1414F09FEF01C091E0989F902D1124BA
:101610009093B1013091B0013323E1F02091B101F9
:101620002223C1F045EB3403C0011124992319F0A2
:101630009093B00103C081E08093B00135EB2303A8
:10164000C0011124992319F09093B10103C081E0E6
:101650008093B101011103C0112309F45DC0809191
:10166000A7019091A8010E94351DAC019091AB019A
:10167000992339F02091030130E02417350758F001
:101680004BC02091A5018AE0289F900111242417C6
:10169000350718F041C09F3F19F09F5F9093AB0151
:1016A000002361F00E947B09101614F09FEF01C027
:1016B00091E0989F902D11249093B201112361F035
:1016C0000E947B09111614F09FEF01C091E0989FD2
:1016D000902D11249093B3013091B2013323E1F0A6
:1016E0002091B3012223C1F045EB3403C001112442
:1016F000992319F09093B20103C081E08093B20165
:1017000035EB2303C0011124992319F09093B30101
:1017100003C081E08093B3018091B00181110BC0BF
:101720008091B101811107C08091B201811103C084
:101730008091B30181110E94860AEB82FC820D83A5
:101740001E8386E0FE013196AEEAB1E001900D9273
:101750008A95E1F726960FB6F894DEBF0FBECDBF8F
:10176000DF91CF911F910F91FF90EF900895EEEAD6
:10177000F1E086E0DF011D928A95E9F71092AC0155
:101780001092AB011092AD0108950F931F93CF9368
:10179000DF93C42FD22FFC0182818823C9F04093AC
:1017A000B6010E941D1D9093B5018093B40180E2A3
:1017B0008C0F883008F057C0C77081E001C0880FD7
:1017C000CA95EAF7DF91CF911F910F910C942512E2
:1017D0008091B601481330C08091B4019091B50159
:1017E0000E94351D883C910538F510E21D0FCD177C
:1017F000B9F080E28C0F883040F4C77081E001C0FE
:10180000880FCA95EAF70E942C12183028F581E05B
:101810009D2F977001C0880F9A95EAF70E942512B4
:10182000802F0E941C121830F0F4D77081E001C0A4
:10183000880FDA95EAF70AC080E28C0F883098F4B6
:10184000C77081E001C0880FCA95EAF7DF91CF9198
:101850001F910F910C942C12802FDF91CF911F912B
:101860000F910C941C12DF91CF911F910F9108954D
:101870000F939C01CB01243F4CE5340731F188F4F0
:10188000293DFCE53F07D9F02A3D4CE5340779F1C5
:10189000283D3C45A9F506E221EE41EE68ED7CE5E8
:1018A0002BC0263FFCE53F07E1F0A8F0273F3C4571
:1018B00039F507E225EE46EE67EF7CE51DC007E24D
:1018C00025EE45EE69ED7CE517C006E221EE40EE1F
:1018D00064EF7CE511C007E225EE44EE65EF7CE5A0
:1018E0000BC006E221EE42EE66EF7CE505C008E2A1
:1018F00021E045EE6AED7CE50E94C50B80E008C062
:10190000FC018281882319F01092B60101C081E0A8
:101910000F910895CF93DF93EC01FB01828188231F
:1019200009F41FC1C230FCE5DF0708F41BC1C63152
:101930009CE5D90738F09E012B5F3C4529303105E5
:1019400008F010C10E94AD1B909372028093710247
:10195000C031ECE5DE0709F4C3C008F041C0C8306F
:101960008CE5D80709F49AC0F0F4C430ECE5DE0742
:1019700009F487C068F4C2308CE5D80709F477C051
:10198000C330DC4509F0E3C080917102826076C00B
:10199000C630ECE5DE0709F46EC008F07BC080912C
:1019A000710288606BC0CC308CE5D80709F485C023
:1019B00068F4CA30ECE5DE0709F474C008F079C0B9
:1019C0000E94B21480917102806858C0CE308CE5BC
:1019D000D80709F476C008F07FC0809171028BC0EF
:1019E000CC3FECE5DE0709F44FC018F5C3318CE5B8
:1019F000D80709F47DC078F4C131ECE5DE0709F4BD
:101A000073C0C231DC4509F0A2C00E94B2148091BB
:101A100071028F7733C0C5318CE5D80709F472C0E5
:101A200008F486C0CB3FDC4509F091C0809172027A
:101A30003EC0C115FDE5DF0709F45FC058F4CE3F95
:101A40009CE5D90709F444C008F43FC080917202B4
:101A500082602DC0C230FDE5DF0709F475C008F4CF
:101A60005DC0C330DD4509F072C080E06EC080917A
:101A70007102816003C08091710280618093710264
:101A800066C08091710211C0809172028260809361
:101A900072025DC0809171028062F0CF809171020C
:101AA0008064ECCF8091710288608460E7CF8160B0
:101AB000EECF809171028E7FE1CF809171028D7F98
:101AC000DDCF80917102877FD9CF8091720218C0DB
:101AD000809172028D7FDBCF809171028F7ECECF9D
:101AE000809171028F7DCACF809171028F7BC6CFAA
:101AF00080917102877F8B7FC1CF809172028D7F31
:101B00008E7FC5CF8091710282FB222720F991E060
:101B1000922790FB82F990FB83F9B0CF80917202FB
:101B2000982F909591708E7F892B90FB81F9AFCF84
:101B30000E94B2148091710287FB222720F991E064
:101B4000922790FB87F99ACF81E00E94441C8091F4
:101B50007102909172020E94BE1B0E94B21480E03A
:101B600001C081E0DF91CF910895CF93DF9386315B
:101B70009C4541F5EB010E94D91A982F8A8120914A
:101B80000F0130911001882379F09A7A81E009F4ED
:101B900080E08093B701911102C069E201C065E362
:101BA000C9010E948B1C0AC08091B701811102C03B
:101BB00069E201C065E3C9010E948D1C0E942B1BD4
:101BC00080E001C081E0DF91CF91089561E070E095
:101BD00087E091E00C94950E61E070E087E091E081
:101BE0000C949C0ECF93DF93D62FC72F0E94340FF7
:101BF000892BF1F4ED2FFC2F80E090E0DC01A35461
:101C0000BE4F2C912193019686309105B9F70E9421
:101C1000901DDC01CB010296A11DB11D8093B9017D
:101C20009093BA01A093BB01B093BC0181E001C0C5
:101C300080E0DF91CF910895CF93DF93D62FC72F08
:101C40006091B9017091BA018091BB019091BC0182
:101C50000E94731DED2FFC2F80E090E02191DC01AC
:101C6000A354BE4F2C93019686309105B9F7DF91AE
:101C7000CF9108958EE1489B02C08150E1F7489BC7
:101C8000FECF0895589880E28A95F1F7589A089502
:101C9000FC012AE02A95F1F728E090E080E031E0AD
:101CA00040E14A95F1F7880F489B02C08160932775
:101CB00000C0000040E14A95F1F7215089F720E18A
:101CC0002A95F1F729B100C0000030E13A95F1F70B
:101CD000217092272081920F90830895EF92FF92B6
:101CE0000F931F93CF93DF931F92CDB7DEB7198267
:101CF0008C017C01E60EF11C0E151F0551F00E94AF
:101D00003A0ECE0101960E94480EF80181938F0190
:101D1000F3CF81E09981911180E00F90DF91CF9115
:101D20001F910F91FF90EF9008959093C4018093BD
:101D3000C301509A589A08959093C4018093C301A7
:101D40005098589AE89AE9E6F0E080818C7F808389
:101D50000895615091E001C0990F6A95EAF720E07B
:101D600031E0992361F0492F482319F0589A23272D
:101D700001C0589840E24A95F1F79695F2CF222398
:101D800011F0589A01C0589880E28A95F1F7589856
:101D90000895FF920F931F93CF93DF93EC018C0173
:101DA000060F111DC017D10741F0F9900E94420E95
:101DB00068E08F2D0E94A90EF5CFDF91CF911F9182
:101DC0000F91FF9008951F920F920FB60F9211245A
:101DD0002F933F934F935F936F937F938F939F9333
:101DE000AF93BF93CF93DF93EF93FF935898509A9D
:101DF000C091C301D091C4016D81662321F08E8111
:101E00009F810E94C90E0E94420E80E18A95F1F7DF
:101E100058985098589A80E18A95F1F76A8166231C
:101E200051F08B819C810E946E0EE881F9818111B5
:101E300004C082E003C0E881F98188E080830E94C9
:101E40003A0EFF91EF91DF91CF91BF91AF919F91AA
:101E50008F917F916F915F914F913F912F910F9053
:101E60000FBE0F901F901895CF93DF93C091C301C1
:101E7000D091C401F894509A589885E08A95F1F76A
:101E800000005098589A80E28A95F1F7489B0AC062
:101E9000509A589AE881F98181E08083789481E0B2
:101EA00090E02CC06D81662381F08E819F810E941D
:101EB0006E0E81110AC0509A589AE881F98182E029
:101EC0008083789482E090E019C00E943A0E80E20C
:101ED0008A95F1F75898509A80E18A95F1F76A81CE
:101EE000662321F08B819C810E94C90E0E94420EC4
:101EF000E881F9811082789480E090E0DF91CF91C1
:101F000008959093CA018093C9010895E091C90191
:101F1000F091CA01309721F00190F081E02D0994F1
:101F200080E00895E091C901F091CA01309721F055
:101F30000280F381E02D09940895E091C901F091A8
:101F4000CA01309739F022E0DC012C930480F5813E
:101F5000E02D099408952091C7013091C8012817F8
:101F6000390771F09093C8018093C701E091C901CE
:101F7000F091CA01309721F00680F781E02D099495
:101F800008952091C5013091C6012817390771F0D5
:101F90009093C6018093C501E091C901F091CA01F7
:101FA000309721F00084F185E02D099408950E9476
:101FB000291D6093DC017093DD018093DE01909315
:101FC000DF016093D8017093D9018093DA01909377
:101FD000DB01089585B7806885BF85B7806885BFB8
:101FE00008950C94FB0608950C94F30F0C94F30FD2
:101FF0000C94F60F0C94F30F0C94FA0F0C94F30F4F
:102000000E94EA0F88E99BE10E94BC1D0E94FE0F1E
:102010000C94FC0F0E94F40F0C94F30F0E94141DFB
:102020000E946A1D0E9495050C94F80F9F92AF9232
:10203000BF92CF92DF92EF92FF920F931F93CF93B5
:10204000DF93CDB7DEB72A970FB6F894DEBF0FBE89
:10205000CDBF0E94390681110E94D70F8CECA82EAB
:1020600081E0B82E00E010E0902E802F0E946505E0
:10207000D82EF501C1905F01C826B1F40F5F1F4F44
:102080000C30110589F78FEF89838A831B820E94A8
:102090001D1D8160782F9D838C8349815A816B81BE
:1020A0008D810E94B4102FC08091650281FD0E9435
:1020B0006B05E12CFF24F3948C2D8F21F1F00E940D
:1020C000F10F882399F0EE829F82DF2081E009F4EE
:1020D00080E088870E941D1D8160782F9A878987FC
:1020E0004E815F8168858A850E94B410F801E453AF
:1020F000FE4F8081F826F08206C0E394FF0CF7E0E3
:10210000EF12DACFBBCF0E94A40A0E94860F9091F3
:10211000CB018917B9F00E94860F8093CB012A96D4
:102120000FB6F894DEBF0FBECDBFDF91CF911F91E8
:102130000F91FF90EF90DF90CF90BF90AF909F9066
:102140000C9429032A960FB6F894DEBF0FBECDBFBC
:10215000DF91CF911F910F91FF90EF90DF90CF9083
:10216000BF90AF909F900895DF92EF92FF920F93F0
:102170001F93CF93DF93CDB7DEB72B970FB6F894AD
:10218000DEBF0FBECDBFF42E052F162FE72ED82EA3
:1021900061110E94F91AFE01319686E0DF011D925D
:1021A0008A95E9F77E2D4F2D502F612F8D2D9E8121
:1021B0000E94A5172B960FB6F894DEBF0FBECDBFB9
:1021C000DF91CF911F910F91FF90EF90DF900895D5
:1021D000FC01808191810E94791A0895CF93882310
:1021E00009F4A9C0C82F8238C1F40E94860F81FD6E
:1021F000A2C069E380910F01909110010E948B1C95
:102200000E942B1B2FEF81EE94E0215080409040E4
:10221000E1F700C0000069E319C0833801F50E94AE
:10222000860F80FD88C063E580910F0190911001B9
:102230000E948B1C0E942B1B2FEF81EE94E02150FB
:1022400080409040E1F700C0000063E580910F01FD
:10225000909110010E948D1CCF910C942B1B8438FF
:10226000C1F40E94860F82FD66C067E480910F0171
:10227000909110010E948B1C0E942B1B2FEF81EE6E
:1022800094E0215080409040E1F700C0000067E4F6
:10229000DDCF8CEF8C0F813AF8F48C2F0E94A308CD
:1022A000811149C06C2F80910F01909110010E9403
:1022B000551C882349F06C2F80910F0190911001DB
:1022C0000E948D1C0E942B1B6C2F80910F019091FE
:1022D00010010E948B1CC0CF80E28C0F883048F424
:1022E000C77081E001C0880FCA95EAF70E94DC1A26
:1022F000B3CFEBE5EC0FE33040F4F0E0E856FE4FEF
:10230000808190E0CF910C94AB0FE8E5EC0FE731C2
:1023100050F4F0E0EE0FFF1FE659FE4F80819181EF
:10232000CF910C94C10FCD3E30F08C2F0E94B40998
:10233000CF910C94860ACF910895882309F464C044
:10234000823879F40E94860F81FF5EC069E3809134
:102350000F01909110010E948B1C0E942B1B69E3BE
:1023600010C08338B1F40E94860F80FF4DC063E532
:1023700080910F01909110010E948B1C0E942B1BD9
:1023800063E580910F01909110010E948D1C0C94C7
:102390002B1B843879F40E94860F82FF35C067E4D6
:1023A00080910F01909110010E948B1C0E942B1BA9
:1023B00067E4E7CF9CEF980F913A10F4682FE1CFD4
:1023C00090E2980F983050F4877091E001C0990F17
:1023D0008A95EAF7892F0E94E21AD9CF9BE5980FD8
:1023E000933020F480E090E00C94AB0F98E5980FC8
:1023F000973120F480E090E00C94C10F8D3E20F0E6
:102400000E940F0A0C94860A08951F93CF93DF93BE
:10241000182FEB010E94EE10209741F08FE99FE00A
:102420000197F1F700C000002197F6CF812FDF91CF
:10243000CF911F910C949D11893319F060E070E0E9
:1024400002C060E570E00C940512882321F00E9420
:10245000DC1A0C942B1B0895882321F00E94E21AA9
:102460000C942B1B0895CF92DF92EF92FF920F9363
:102470001F93CF93DF937C01062FC72FFC01D281DE
:10248000158112951F700E94B11A882399F0DD23DF
:1024900089F08C2F807F803421F080E2800F88309B
:1024A00048F082E00E947B1B0E94B11A91E0D82E76
:1024B000D92601C0D12CCC2EC2948FE0C8228C2DFD
:1024C00090E0FC01EA5AFF4F0C94A3248C2F807FEC
:1024D000CF70882311F0C295C07FDD2399F0CC2303
:1024E00009F48DC180E2800F883010F0011104C022
:1024F0008C2F0E94DC1A03C08C2F0E94EC1A0E94C1
:102500002B1B7DC1802F0E949D11CC2309F49CC1FF
:1025100080E2800F883010F0011104C08C2F0E94DF
:10252000E21A03C08C2F0E94F21A0E942B1B8CC14E
:102530008C2F807FCF70803211F0C295C07F002336
:1025400019F00130C9F022C0DD2371F0112341F0F0
:10255000113031F40E940C1B8C2B0E94141B74C18F
:102560000E940C1B8C2B1DC0112319F0113009F493
:102570006BC10E94211B25C0DD2321F0163008F01D
:1025800063C10EC0153008F05FC11BC0DD2361F0D0
:10259000112331F0F701858180FF31C18F70858370
:1025A0008C2F0E94251250C1112359F0093309F0D4
:1025B00037C1FFEF27EE83E0F15020408040E1F784
:1025C0002DC18C2F0E942C123FC18C2F8695869591
:1025D000837019F0813061F037C1DD2321F0802F45
:1025E0009C2F937002C080E090E00E94AB0F34C13A
:1025F000DD2321F0802F9C2F937002C080E090E0BB
:102600000E94C10F29C1802FDD2319F00E94B40957
:1026100002C00E940F0A0E94860A1EC18C2F83707E
:1026200009F045C0D11114C1402F4295469547701D
:10263000440F440F602F6F70862F90E0A0E0B0E051
:10264000042E04C0880F991FAA1FBB1F0A94D2F73B
:1026500004FF10C00FE010E020E030E004C0000FE5
:10266000111F221F331F4A95D2F700951095209510
:10267000309503C000E010E09801C695C695C37080
:10268000BC01CD01602B712B822B932BC23049F002
:1026900058F4C13019F00E94F618DAC00E94E4180C
:1026A000D7C00E940819D4C00E94E218D1C0DD230F
:1026B00019F08C2F817001C08695882309F4C8C059
:1026C000402F429546954770440F440F602F6F701E
:1026D000862F90E0A0E0B0E0042E04C0880F991F80
:1026E000AA1FBB1F0A94D2F704FF10C00FE010E02E
:1026F00020E030E004C0000F111F221F331F4A9555
:10270000D2F7009510952095309503C000E010E0B9
:102710009801C695C695C370BC01CD01602B712B85
:10272000822B932BC23049F058F4C13019F00E942B
:10273000BB198EC00E94A9198BC00E94CD1988C0F8
:102740000E941C1985C0CF70DD2339F08C2F0E94A8
:102750004219802F0E9425127BC0802F0E942C12CC
:102760008C2F0E94631974C0023F01F128F4003FCE
:1027700041F0013FA1F03FC0033FF9F0043F39F1C0
:102780003AC0DD2341F0153008F05EC08C2F8F7108
:102790000E94881959C0163008F056C0F7CFDD23C3
:1027A00039F08C2F8F710E9442194EC0DD23C9F37E
:1027B0008C2F8F710E94631947C0DD2329F08C2F65
:1027C0008F710E942D1940C00E9428193DC0DD2341
:1027D00049F0CF718C2F0E94421963E08C2F0E9428
:1027E000601B32C081E00E947B1B123068F182E0E6
:1027F0000E947B1B29C0DD2331F0112391F2802F31
:102800000E94EE1021C0112399F2093349F49FEF81
:10281000E7EEF3E09150E040F040E1F700C0000047
:10282000802F0E949D1110C04C2F4F70602FC70148
:102830000E9432030E9453180FC04C2F4F70602F1C
:10284000C7010E94350308C088EF8C0D843020F446
:102850000E94860F0E942903DD20C9F00E94AD1A54
:1028600080FD15C0F70112820E94A71A0E9442192A
:10287000C7010E9468140E94A71ADF91CF911F918F
:102880000F91FF90EF90DF90CF900C946319DF9140
:10289000CF911F910F91FF90EF90DF90CF9008950F
:1028A0000F931F93CF93DF93EC01688179818A8125
:1028B0000E94841A8C010E94DF190E94D018B8016E
:1028C000CE010E943312DF91CF911F910F91089595
:1028D000CF93DF93EC01988189812B813C81232B5D
:1028E00031F08F3F31F481E09F3F19F403C081E064
:1028F00001C080E080FD19C0CE010E94D00281118C
:102900000CC00E94B11A882381F08A81882369F063
:1029100082E0DF91CF910C947B1BCE010E9450147A
:10292000CE01DF91CF910C94AF02DF91CF9108954A
:1029300080E090E00E94AB0F80E090E00E94C10F29
:102940000E94F91A0E94091B0E942B1B0E94B70BC0
:102950000C94860A80910F01909110010E948F1CA7
:102960000C9498140E94E91A0C94AA14E92FE29589
:10297000EF704E2F50E0FA013297EE30F105B0F4CF
:10298000EA59FF4F0C94A324803F91F018F4883E3D
:1029900068F40EC0843F51F40BC0883E48F0813F7C
:1029A00029F406C093FB882780F9089580E00895F4
:1029B00081E008950E94791A0E94B6140895CF9379
:1029C000DF9300D000D01F92CDB7DEB70F900F90ED
:1029D0000F900F900F90DF91CF910895CF93DF93D9
:1029E00000D000D000D0CDB7DEB726960FB6F89451
:1029F000DEBF0FBECDBFDF91CF9108951F93CF9360
:102A0000DF93C091E10116E08091E201C81799F0CF
:102A1000D0E01C9FF0011D9FF00D1124ED51FE4FE1
:102A20004081518162817381848195810E94EE147D
:102A30002196C770E9CFDF91CF911F910895409102
:102A40001302509114026091150270911602809148
:102A50001702909118020C94EE142091E1019091CC
:102A6000E20156E02917A9F030E0529FF001539F90
:102A7000F00D1124ED51FE4F7181761306C0708167
:102A8000781303C07281741306C02F5F3F4F277005
:102A9000E9CF80E0089581E008950F931F93CF93CD
:102AA000DF938091180282958F7009F05DC080914C
:102AB0001502882309F458C08091E1011091E201C8
:102AC0006091130270911402C0911602D091170206
:102AD00091E06F3F09F090E0292F06E0811709F49B
:102AE00043C0209721F07F3F21F030E003C031E068
:102AF00001C0322F90E030FD34C0089FF001099FE3
:102B0000F00D1124DF01AD51BE4F11963C9111978C
:102B1000371327C03C91361324C012963C9112976C
:102B200031111FC013964D915C9114974C1B5D0B96
:102B3000483C5105B0F4809118028F7080618093F9
:102B40001802E851FE4F80818F708061808383E19D
:102B500092E00E946814DF91CF911F910F910C9425
:102B6000FE1401968770BACFDF91CF911F910F911C
:102B700008958F929F92AF92BF92CF92DF92EF9281
:102B8000FF920F931F93CF93DF93CDB7DEB761977B
:102B90000FB6F894DEBF0FBECDBF8C0185E0F80103
:102BA000DE011D9601900D928A95E1F7D801DC9027
:102BB0001196EC9011971296CC909091130220915F
:102BC000140240911602509117024115510531F03F
:102BD0002F3F31F481E09F3F19F403C081E001C031
:102BE00080E080FD81C1F8018380948083E1A82E7C
:102BF00082E0B82EF0901502B401641B750BFF2023
:102C000009F418C180911802382F307F683C710593
:102C100008F0D1C031118AC0E21214C0D91212C01A
:102C2000FC2CC1100FC08F708061809318020E942D
:102C30001F15C5010E94681480911802D8011596CD
:102C40008C936FC18114910439F0BFEFEB1206C071
:102C500081E0DB1203C003C081E001C080E080FDA1
:102C600003C081E08C2502C080E090E080FF10C0AE
:102C70004C2D6E2D8D2D0E942D15882349F083E15A
:102C800092E00E946814E3E1F2E086E0DF01A4C074
:102C9000892839F0BFEFEB1206C081E0DB1203C0D8
:102CA00003C081E001C080E080FD03C081E08C258D
:102CB00002C080E090E0E82FE170BE2E80FF2CC0C3
:102CC0004C2D6E2D8D2D0E942D15F82E811124C0B6
:102CD000DD86EE868D859E850E94791A292F2295A4
:102CE0002F70223018F0243090F405C09F7059F0F6
:102CF000811109C016C19F7031F0D80115969C91C1
:102D0000907F09F40EC1805E883008F40AC1C801C2
:102D10000E946814FB2C05C1FC2CCC2009F401C1D5
:102D2000809118028160809318025BC0E21206C095
:102D3000D91204C0C11002C0F801A0C0DD86EE8621
:102D40008D859E850E94DA14882379F1CC2069F163
:102D500020911802822F82958F7090E0029774F074
:102D6000809113029091140298878F8319869B8615
:102D70008A862C87CE0107960E94681486E0F801A7
:102D8000A3E1B2E001900D928A95E1F70E944D1502
:102D90000E941F150DC0E21631F1DD86EE868D858D
:102DA0009E850E94DA1481112DC0C8010E9468140A
:102DB000FF24F394B6C03111EECF782D998A888A1A
:102DC0004D2D5E2D6C2D89890E94DF1483E192E0E8
:102DD0000E94681486E0D5011D928A95E9F70E9449
:102DE0001F15F12C9EC0D912D8CFC110D6CFF80133
:102DF0008583C8010E94681486E0D5011D928A95DA
:102E0000E9F78FC0CC2089F220911802822F829599
:102E10008F7090E002970CF4B1CF809113029091E3
:102E200014029A8389831B829D828C822E83CE0119
:102E30000196A2CF683C710508F047C0FC2CCC205D
:102E400009F4B3CFE21230C0D9122EC0209118027B
:102E500020FD21C0822F82958F70482F50E04115B0
:102E60005105C9F0F80125834F30510541F08F5FBE
:102E7000982F9295907F822F8F70892B8583C80120
:102E80000E94681486E0F801A3E1B2E001900D927F
:102E90008A95E1F744C086E0F801A3E1B2E0019031
:102EA0000D928A95E1F73DC0DD86EE868D859E8583
:102EB0000E94DA14811162CF8091180281608093A0
:102EC0001802C8010E9468142CC0782D998A888A3B
:102ED0004D2D5E2D6C2D89890E94DF1486E0D50171
:102EE0001D928A95E9F71BC0CC2009F45ECFDD86E0
:102EF000EE868D859E850E94DA14F82E882309F4CB
:102F000054CF86E0F801A3E1B2E001900D928A95DA
:102F1000E1F783E192E00E94E8100E944D150E94C3
:102F20001F158F2D61960FB6F894DEBF0FBECDBF73
:102F3000DF91CF911F910F91FF90EF90DF90CF9095
:102F4000BF90AF909F908F9008951F93CF93DF9382
:102F5000CDB7DEB72C970FB6F894DEBF0FBECDBF4E
:102F60004F83588769877A878B879C87CE0107961E
:102F70000E94B9158823D1F09F8188852A853B85D9
:102F8000232B31F08F3F31F481E09F3F19F403C0D0
:102F900081E001C080E080FD47C04F815885698590
:102FA0007A858B859C850E94EE143EC086E0FE01EA
:102FB0003796DE01119601900D928A95E1F7FF8117
:102FC000E8856A857B856115710531F0EF3F31F445
:102FD00081E0FF3F19F403C081E001C080E080FD83
:102FE00023C02091E20130E0C90101968770992742
:102FF0004091E10150E084179507F1F1F983EA83EC
:103000007D836C8396E0929FD001939FB00D112435
:10301000AD51BE4FFE01319601900D929A95E1F7A8
:103020008093E2010E94FE1416E08091E1019091EC
:10303000E201891771F1189FC00111248D519E4F33
:103040000E94B915882329F1E091E1011E9FF0014A
:103050001124ED51FE4F4081518162817381848141
:1030600095810E94EE148091E10190E001968770B5
:1030700099278093E101D9CF0E94B2141092E20106
:103080001092E101E3E1F2E086E0DF011D928A9512
:10309000E9F72C960FB6F894DEBF0FBECDBFDF91D7
:1030A000CF911F910895EF92FF920F931F93CF93AB
:1030B000DF938C01892B09F46CC0F12CEE24E3948E
:1030C000E8012196F8018491843740F4843008F0B7
:1030D00051C0813081F0823019F15BC0853709F42D
:1030E00044C0A8F19CE7980F903708F052C08F7742
:1030F0000E949D1141C00E5F1F4FFE01849190E21E
:10310000980F983050F48770FE2D01C0FF0F8A95FC
:10311000EAF78F2F0E94FC1A14C00E94EE102DC0F7
:103120000E5F1F4FFE01849190E2980F983060F47B
:103130008770FE2D01C0FF0F8A95EAF78F2F0E943E
:10314000021B0E942B1B19C00E949D1116C00E5F0E
:103150001F4FFE01C491CC2381F08FE99FE00197BE
:10316000F1F700C00000C150F6CF0E5F1F4FFE0107
:10317000F49003C00E94EE108E018F2D882309F475
:103180009FCFEFE9FFE03197F1F700C000008150D9
:10319000F5CFDF91CF911F910F91FF90EF900895A0
:1031A000089508950C94D1180C94D2180E94D41844
:1031B0006093540270935502809356029093570285
:1031C0000C9498140C94D6180F931F9300915402EA
:1031D000109155022091560230915702602B712BAD
:1031E000822B932B1F910F910C94D6180F931F9342
:1031F00000915402109155022091560230915702CD
:1032000060237123822393231F910F910C94D6186E
:103210000F931F9300915402109155022091560272
:103220003091570260277127822793271F910F91B2
:103230000C94D6180C94D1180E941A19609350025D
:103240007093510280935202909353020C949814FD
:1032500060E070E0CB010C941C190F931F9341E0C8
:1032600050E060E070E08A019B0104C0000F111F74
:10327000221F331F8A95D2F7C901B8011F910F9100
:103280000C941C190F931F9341E050E060E070E034
:1032900004C0440F551F661F771F8A95D2F780918F
:1032A000500290915102A0915202B09153028A01B2
:1032B0009B01082B192B2A2B3B2BC901B8011F910D
:1032C0000F910C941C190F931F9341E050E060E0A4
:1032D00070E004C0440F551F661F771F8A95D2F710
:1032E0004095509560957095809150029091510253
:1032F000A0915202B09153028A019B010823192325
:103300002A233B23C901B8011F910F910C941C196A
:103310000F931F9341E050E060E070E004C0440F61
:10332000551F661F771F8A95D2F7809150029091A2
:103330005102A0915202B09153028A019B010827C9
:1033400019272A273B27C901B8011F910F910C9417
:103350001C190F931F93009150021091510220915C
:10336000520230915302602B712B822B932B1F91B1
:103370000F910C941C190F931F9300915002109100
:103380005102209152023091530260237123822313
:1033900093231F910F910C941C190F931F9300916D
:1033A0005002109151022091520230915302602735
:1033B0007127822793271F910F910C941C19089550
:1033C00027E0929F800D1124E82FE695E695E6957B
:1033D000877051E001C0550F8A95EAF785E0E89FB4
:1033E000F0011124E75EFD4F20E030E070E0408105
:1033F000CB01022E02C0969587950A94E2F7817060
:10340000819584278523842781932F5F3F4F253023
:10341000310569F7089527E0929F800D1124682FE8
:10342000669566956695982F977085E0689FB001C0
:10343000112440E050E080E0FB01E40FF51FE75E5F
:10344000FD4F208130E0092E02C0369527950A9461
:10345000E2F721703327042E01C0220F0A94EAF705
:10346000822B4F5F5F4F4530510531F70895BF9272
:10347000CF92DF92EF92FF920F931F93CF93DF9340
:103480008C01C0905002D0905102E0905202F09016
:1034900053028091540290915502A0915602B0912E
:1034A0005702C82AD92AEA2AFB2ACFE1D0E0D7015D
:1034B000C6010C2E04C0B695A795979587950A94DA
:1034C000D2F780FD04C0219790F7B12C07C0BC2E25
:1034D000B8018C2F0E9451030197A9F38B2DDF9126
:1034E000CF911F910F91FF90EF90DF90CF90BF9001
:1034F0000895CF93DF93EC010E94371ABE010E941A
:103500005103DF91CF9108951F93CF93DF93EB0188
:103510009091E001992321F0CB010E94791A13C008
:10352000882349F0CB010E94371A182F682FCE014B
:103530000E94E01904C0CB010E940B1A182FBE0193
:10354000812F0E945103DF91CF911F9108958091A7
:1035500058028595859585950895809158028770C4
:10356000089590915802977081E009F480E00895E1
:103570009091720292FB222720F9281751F080FBCC
:1035800092F99093720280917102909172020C9460
:10359000BE1B08958091720282FB882780F991E01A
:1035A00089270C94B81A81E00C94B81A80E00C9426
:1035B000B81A80916402089590916402892B8093D7
:1035C0006402089580959091640289238093640237
:1035D000089510926402089590916302892B80935C
:1035E000630208958095909163028923809363021A
:1035F000089510926302089590916202892B80933E
:1036000062020895809590916202892380936202FC
:1036100008951092620208958091590208950895C4
:103620000C940F1B0C94101B9091720292FD08C019
:1036300090915902981721F0809359020C94121B13
:10364000089580915902882329F01092590280E050
:103650000C94121B0895E0910F01F09110018091DC
:1036600064028083E0910F01F091100190818091BC
:103670006302892B8083E0910F01F091100190810A
:1036800080916202892B808380915902882381F086
:10369000E0910F01F09110019081892B808380913E
:1036A0000F01909110010E94491C81110E94211B61
:1036B00080910F01909110010C94920F0C940F1BAC
:1036C0009091720292FD10C098E0899F90011124A0
:1036D000262B209358020E9442198091580285950A
:1036E000859585950C945E1B0C9442191092580296
:1036F00080E00C945E1B2091580280958223809379
:103700005802982F977041F430E0482F082E000C93
:10371000550B2417350721F49091720292FF07C0D0
:103720008595859585950E9463190C94761B08955F
:1037300080E0089580E090E00E94C52421E08A3E68
:103740009E4F09F020E0822F089582E090E00C94D3
:10375000BD2483E090E00C94BD24CF9384E090E0FE
:103760000E94BD24C82F82E290E00E94BD242C2F2D
:1037700030E0A901582BCA01CF910895CF93C92FEA
:10378000682F84E090E00E94CB246C2F82E290E0CE
:10379000CF910C94CB24AB01BC018FE090E00C9452
:1037A000DD24AB01BC0183E190E00C94DD2460E0FA
:1037B00070E0CB010C94D11B60E070E0CB010E9463
:1037C000CB1B0C94D71B6AEE7EEF80E090E00E944A
:1037D000E92460E082E090E00E94CB2460E083E096
:1037E00090E00E94CB241092540210925502109245
:1037F00056021092570260E084E090E00E94CB24D1
:1038000060E082E290E00E94CB2460E085E090E0FE
:103810000E94CB2460E086E090E00E94CB246FEF12
:1038200087E090E00E94CB2440E050E0BA0188E0BD
:1038300090E00E94DD2460E08DE090E00E94CB24C7
:1038400040E050E0BA0188E190E00E94DD2460E0B1
:1038500087E190E00E94CB2440E050E0BA018CE187
:1038600090E00E94DD2460E070E080E290E00E9441
:10387000E92440E050E0BA0188E190E00E94DD24B4
:103880000C94DC1B0C94E31B682F8EE090E00C94EE
:10389000CB24FC01329697E080E0915029F02191F1
:1038A0002223D9F38F5FF9CF0895662349F0FC01F5
:1038B000329608962191621729F0E817F907D1F797
:1038C00080E0089581E008959C01FC0132969FEF0D
:1038D00080E04191461789F09F3F19F4411101C0E2
:1038E000982F8F5F8630A9F79F3F39F0F901E90FD4
:1038F000F11D97FDFA956283089508959C012A5F52
:103900003F4FFC014281461301C01282019682178B
:103910009307B9F708950C94641C0C947E1C0296CE
:1039200026E0FC0111922A95E9F7089508950C9478
:10393000961C0C94961CCF930E94991C0E943906E9
:103940000E94971CC0E08C2F0E946505811104C065
:10395000CF5FCC30C1F701C081E0CF9108950C94C6
:10396000961C0C94AF1C80919902843049F10E94FE
:10397000B11C80E00E9429031092660220E488E1D5
:1039800090E00FB6F894A895809360000FBE209346
:10399000600083B7817F846083BF83B7816083BF0A
:1039A0007894889583B78E7F83BF0FB6F894A895D7
:1039B00080916000886180936000109260000FBE6B
:1039C00008950C94961C0E94B2140E94860F0E94C7
:1039D00029030C94E11C1F920F920FB60F92112431
:1039E0008F939F93AF93BF9380916602811113C011
:1039F00080918D0290918E02A0918F02B0919002E1
:103A00004196A11DB11D80938D0290938E02A093CB
:103A10008F02B0939002BF91AF919F918F910F90C1
:103A20000FBE0F901F90189582E084BD93E095BD66
:103A30009AEF97BD80936E0008952FB7F894809108
:103A40008D0290918E02A0918F02B09190022FBFB3
:103A500008952FB7F89460918D0270918E02809135
:103A60008F02909190022FBF08959C014FB7F89458
:103A700080918D0290918E02A0918F02B091900260
:103A80004FBF821B930B089578941F920F920FB62D
:103A90000F9211248F939F93AF93BF9380918D02C8
:103AA00090918E02A0918F02B09190020196A11D7B
:103AB000B11D80938D0290938E02A0938F02B093DC
:103AC0009002BF91AF919F918F910F900FBE0F9079
:103AD0001F901895109291021092920210929302E8
:103AE000109294020895CF92DF92EF92FF926B01B1
:103AF0007C010E94FB0681110EC00E94291DC61A7E
:103B0000D70AE80AF90AC0929102D0929202E09292
:103B10009302F0929402FF90EF90DF90CF9008957F
:103B20000F931F930E94FB06882321F01F910F9192
:103B30000C94291D0E94291D00919102109192025E
:103B40002091930230919402600F711F821F931F86
:103B50001F910F91089587E797E79093010880934D
:103B600000089AE088E10FB6F894A8958093600069
:103B70000FBE90936000FFCF90939D0180939C01B6
:103B8000089580916F020895CF93DF9300D01F9224
:103B9000CDB7DEB790919902943019F589837B8374
:103BA0006A8382E08093E9008FEF9091E800815072
:103BB00095FD06C095ED9A95F1F700008111F5CFBE
:103BC0008091E80085FF0DC040E050E063E070E0C8
:103BD000CE0101960E94DF1F8091E8008E778093CE
:103BE000E8000F900F900F90DF91CF910895BC01E6
:103BF00084E00C94C41DBC0183E00C94C41D22E03D
:103C00002093E9002FEF3091E800215035FD06C0E8
:103C100035ED3A95F1F700002111F5CF2091E8003C
:103C200025FF0BC040E050E066E070E00E94DF1F1F
:103C30008091E8008E778093E8000895CF93DF931A
:103C400021E02093E9002FEF3091E800215035FD6D
:103C500006C035ED3A95F1F700002111F5CF20911E
:103C6000E80025FF14C0EC0140E050E068E070E09F
:103C70000E94DF1F8091E8008E778093E80088E043
:103C8000FE01A7E6B2E001900D928A95E1F7DF917F
:103C9000CF91089580919802811109C00E947021EE
:103CA0000E94CD218091E20084608093E20008951B
:103CB00010929802089508950895089542E061ECE5
:103CC00081E00E94E92042E261EC82E00C94E9206C
:103CD00080919B02833009F460C030F4813071F030
:103CE000823009F499C008958A3009F485C08B3078
:103CF00009F46BC0893009F0A7C020C080919A02F6
:103D0000813A09F0A1C08091E800877F8093E800A4
:103D100080919E0290919F02892B21F468E087E6B2
:103D200092E003C060E080E090E070E00E942A2012
:103D30008091E8008B778093E800089580919A0243
:103D4000813209F081C080919E0290919F0202977A
:103D500008F07AC08091E800877F8093E800809126
:103D6000E80082FD05C0809199028111F8CF6CC0F6
:103D70002091F3008091F20090E0922B029729F4B9
:103D80008091F1008B7F813021F48091F10080934C
:103D90006F028091E8008B7753C080919A02813A3C
:103DA00009F052C080919E0290919F02892B09F0E8
:103DB0004BC08091E800877F8093E8008091E80005
:103DC00080FFFCCF80911B0136C080919A02813226
:103DD000D9F580919E0290919F02892BA9F580913F
:103DE000E800877F8093E8000E941E2180919C025A
:103DF00080931B010C94B21480919A02813221F5B8
:103E00008091E800877F8093E8000E941E218091C6
:103E10009D0280937002089580919A02813AA1F4E4
:103E20008091E800877F8093E8008091E80080FF20
:103E3000FCCF809170028093F1008091E8008E7732
:103E40008093E8000C941E21089584B7877F84BF77
:103E50000FB6F894A8958091600088618093600007
:103E6000109260000FBE90E080E80FB6F894809347
:103E70006100909361000FBE0E9400100E947021AB
:103E80000E94CD218091E20084608093E2007894CA
:103E90000E9462240E940E1081E191E00E94810F35
:103EA000809199028530A9F480919902853079F446
:103EB0000E94B31C809197028823B1F30E949B1C3F
:103EC000882391F30E94C91F0E94B214EDCF0E9473
:103ED000E31C0E9416100E940A10E2CF0C94701F7F
:103EE000292F332723303105C9F060F42130310503
:103EF00081F02230310509F044C08BE390E026E3E5
:103F000033E043C021323105E1F02232310549F17D
:103F100038C082E190E021E733E037C09927813053
:103F2000910549F028F0029761F5E4EFF2E005C051
:103F3000E2E3F3E002C0E2E2F3E0849190E09F016B
:103F400024C06115710541F061307105D1F489E03B
:103F500090E021E633E019C089E090E028E433E006
:103F600014C06115710541F06130710551F48BE7A2
:103F700090E023E833E009C080E490E02EEF33E0E6
:103F800004C080E090E020E030E0FA01318320833B
:103F9000089580E189BD82E189BD09B400FEFDCFAD
:103FA0008091D8008F7D8093D8008091E00082605E
:103FB0008093E0008091E00081FDFCCF0895CF92D6
:103FC000DF92EF92FF920F931F93CF93DF93EC0159
:103FD0008B017A010E943D21811133C0E114F1046B
:103FE00039F0F70180819181081B190BC80FD91F87
:103FF000C12CD12C0115110519F18091E80085FD26
:1040000016C08091E8008E778093E800E114F104F7
:1040100049F0F70180819181C80ED91ED182C082FA
:1040200085E00FC00E943D21882321F30AC08991B9
:104030008093F10001501109FFEFCF1ADF0ADACFA8
:1040400080E0DF91CF911F910F91FF90EF90DF9073
:10405000CF9008952091A0023091A1022617370732
:1040600048F06115710539F42091E8002E7720930E
:10407000E80001C0B901FC0120E06115710579F18A
:10408000809199028823F1F18530F1F18091E80067
:1040900083FD3CC08091E80082FD2EC08091E80045
:1040A00080FFEBCF2091F3008091F20090E0922B03
:1040B0006115710551F08830910538F421912093F4
:1040C000F100615071090196F3CF21E0089709F0E2
:1040D00020E08091E8008E778093E800CECF211118
:1040E000CFCF0AC080919902882361F0853061F0BA
:1040F0008091E80083FD0AC08091E80082FFF2CF42
:1041000080E0089582E0089583E0089581E00895B5
:104110002091A0023091A1022617370748F06115BF
:10412000710539F42091E8002E772093E80001C052
:10413000B901FC0120E06115710591F180919902AE
:10414000882309F440C0853009F43FC08091E8001D
:1041500083FD3DC08091E80082FD2FC08091E80082
:1041600080FFE9CF2091F3008091F20090E0922B44
:104170006115710559F08830910540F42491209320
:10418000F1003196615071090196F2CF21E0089754
:1041900009F020E08091E8008E778093E800CBCF93
:1041A0002111CCCF0AC080919902882361F085301B
:1041B00061F08091E80083FD0AC08091E80082FFF1
:1041C000F2CF80E0089582E0089583E0089581E0D1
:1041D0000895982F973068F59093E900981739F073
:1041E0007091EC002091ED005091F00003C0242F5D
:1041F000762F50E021FD02C09F5FECCF3091EB00A5
:104200003E7F3093EB003091ED003D7F3093ED0029
:104210003091EB0031603093EB007093EC00209311
:10422000ED005093F0002091EE0027FDE5CF80E0F7
:1042300008958F708093E90081E0089580919A023B
:1042400087FF11C08091E80082FD05C0809199022E
:104250008111F8CF11C08091E8008B770BC080915D
:104260009902882349F08091E80080FFF8CF80917F
:10427000E8008E778093E80008952091E400309163
:10428000E50095E64091EC00842F817040FF23C04B
:104290008091E80080FD1DC080919902882399F0EB
:1042A000853099F08091EB0085FD11C04091E400CC
:1042B0005091E5002417350729F3915011F09A0128
:1042C000E1CF84E0089582E0089583E0089581E0DD
:1042D000089580E008954091E80042FFDDCF089501
:1042E0000E94DE210E94E621E0EEF0E08081816004
:1042F0008083E8EDF0E080818F77808319BCA7EDA3
:10430000B0E08C918E7F8C9380818F7E8083109221
:10431000980208950F931F93CF93DF930E94DE219D
:104320000E94E621C8EDD0E088818F77888388815C
:104330008068888388818F7D888319BC1092990258
:1043400010929502109297021092960200EE10E0E1
:10435000F80180818B7F808388818160888342E03F
:1043600060E080E00E94E920E1EEF0E080818E7F55
:104370008083E2EEF0E080818160808380818860CC
:104380008083F80180818E7F80838881806188832B
:10439000DF91CF911F910F910895E8EDF0E08081BA
:1043A0008F7E8083E7EDF0E080818160808384E010
:1043B00082BF81E0809398020C948A21E8EDF0E0BE
:1043C00080818E7F80831092E20008951092DA003F
:1043D0001092E10008951F920F920FB60F921124D0
:1043E0002F933F934F935F936F937F938F939F93FD
:1043F000AF93BF93EF93FF938091E10082FF0BC0D7
:104400008091E20082FF07C08091E1008B7F809362
:10441000E1000E9461248091DA0080FF1FC080913A
:10442000D80080FF1BC08091DA008E7F8093DA0075
:104430008091D90080FF0DC080E189BD82E189BDF6
:1044400009B400FEFDCF81E0809399020E944A1ECC
:1044500005C019BC109299020E94581E8091E1007B
:1044600080FF19C08091E20080FF15C08091E200BA
:104470008E7F8093E2008091E20080618093E20071
:104480008091D80080628093D80019BC85E0809329
:1044900099020E945C1E8091E10084FF30C08091EF
:1044A000E20084FF2CC080E189BD82E189BD09B4AE
:1044B00000FEFDCF8091D8008F7D8093D800809141
:1044C000E1008F7E8093E1008091E2008F7E8093F7
:1044D000E2008091E20081608093E2008091950289
:1044E000882311F084E007C08091E30087FD02C0BB
:1044F00081E001C083E0809399020E945D1E80915B
:10450000E10083FF29C08091E20083FF25C08091F4
:10451000E100877F8093E10082E08093990210920E
:1045200095028091E1008E7F8093E1008091E2000E
:104530008E7F8093E2008091E20080618093E200B0
:1045400042E060E080E00E94E9208091F000886015
:104550008093F0000E945B1EFF91EF91BF91AF919D
:104560009F918F917F916F915F914F913F912F918B
:104570000F900FBE0F901F9018951F920F920FB6BD
:104580000F9211242F933F934F935F936F937F93D9
:104590008F939F93AF93BF93CF93DF93EF93FF934B
:1045A000C091E900CF708091EC00D82FD17080FDD0
:1045B000D0E81092E9008091F000877F8093F000AE
:1045C00078940E9401231092E9008091F0008860A5
:1045D0008093F000CD2BCF70C093E900FF91EF9155
:1045E000DF91CF91BF91AF919F918F917F916F910B
:1045F0005F914F913F912F910F900FBE0F901F90A1
:1046000018951F93CF93DF93CDB7DEB7AA970FB658
:10461000F894DEBF0FBECDBFEAE9F2E08091F10071
:10462000819322E0E23AF207C9F70E94681E809166
:10463000E80083FF2EC180919A0290919B02492F3E
:1046400050E04A30510508F024C1FA01EC58FF4F00
:104650000C94A324803821F0823809F01AC108C0D4
:104660008091960290919702992389F082600FC001
:1046700080919E028F70873008F00BC18093E90013
:104680008091EB0085FB882780F91092E9009091DA
:10469000E800977F9093E8008093F1001092F1007A
:1046A000D1C0282F2D7F09F0F4C0882319F0823063
:1046B00061F0EFC080919C02813009F0EAC0933034
:1046C00009F080E0809397022EC080919C028111B6
:1046D0002AC080919E028F702FEF280F263008F09D
:1046E000D8C08093E9002091EB0020FF1CC09330DC
:1046F00021F48091EB00806214C09091EB009061F6
:104700009093EB0021E030E0A90102C0440F551F57
:104710008A95E2F74093EA001092EA008091EB005C
:1047200088608093EB001092E9008091E800877F19
:104730008093E8000E941E21ACC08111AAC0109194
:104740009C021F778091E3008078812B8093E300A7
:104750008091E800877F8093E8000E941E2180916D
:10476000E80080FFFCCF8091E30080688093E30045
:10477000111102C082E001C083E08093990289C0D8
:104780008058823008F085C080919C0290919D02F3
:104790008C3D53E0950779F583E08A838AE289832B
:1047A0004FB7F894DE01139620E03EE051E2E32F8C
:1047B000F0E050935700E49120FF03C0E295EF70C2
:1047C0003F5FEF708E2F90E0EA3010F0C79601C087
:1047D000C0968D939D932F5F243149F74FBF8091F1
:1047E000E800877F8093E8006AE270E0CE010196DE
:1047F0000E942A2016C060919E0270919F02AE0115
:104800004F5F5F4F0E946E1FBC01892B09F441C0AE
:104810009091E800977F9093E80089819A810E94A7
:1048200088208091E8008B778093E80032C0803840
:1048300081F58091E800877F8093E8008091950260
:104840008093F1008091E8008E7772CF811121C0B2
:1048500080919C0290919D0299270297D4F48091B7
:10486000E800877F8093E80080919C028093950206
:104870000E941E2180919502811106C08091E30063
:1048800087FD02C081E001C084E0809399020E940C
:104890005E1E8091E80083FF0AC08091E800877F58
:1048A0008093E8008091EB0080628093EB00AA96F1
:1048B0000FB6F894DEBF0FBECDBFDF91CF911F9131
:1048C00008950895CF93809199028823A1F0C09113
:1048D000E900CF709091EC00892F817090FD80E805
:1048E000C82B1092E9008091E80083FD0E9401230B
:1048F000CF70C093E900CF9108950E94702110926B
:1049000099020895E8EDF0E08081806180838AE17A
:104910008A95F1F700C08091D9008170089597FBC6
:10492000072E16F4009407D077FD09D00E94A92421
:1049300007FC05D03EF4909581959F4F08957095A2
:1049400061957F4F0895EE0FFF1F0590F491E02DC4
:104950000994AA1BBB1B51E107C0AA1FBB1FA617C6
:10496000B70710F0A61BB70B881F991F5A95A9F718
:1049700080959095BC01CD010895F999FECF92BD27
:1049800081BDF89A992780B50895A8E1B0E042E08A
:1049900050E00C94F124262FF999FECF92BD81BDF1
:1049A000F89A019700B4021639F01FBA20BD0FB66D
:1049B000F894FA9AF99A0FBE08950396272F0E9449
:1049C000CC240E94CB24252F0E94CC24242F0C948D
:1049D000CC240196272F0E94CC240C94CB24DC01FC
:1049E000CB01FC01F999FECF06C0F2BDE1BDF89AFA
:1049F000319600B40D9241505040B8F70895F894A4
:024A0000FFCFE6
:104A0200012808643C0714B80104B90106BD015A23
:104A120002C11D1E1EFF1DFB1DF71D01E200E90064
:104A2200EA00B500B600B700CD008301CC008A01D0
:104A32009201940121022302240225022602270266
:104A42002A02B300B4006F007000818283F5F6F78A
:104A520031333236946697C63435000000000000C8
:104A620001020304050607080900E200E900EA0062
:104A7200B500B600B700CD008301CC008A019201D7
:104A820094012102230224022502260227022A027D
:0C4A9200B300B4006F007000818283004C
:00000001FF
